:020000040800F2
:10000000F8FF032011000008CD5C0008CD5C00085B
:100010000E4B1A680E4B9A600E4B83F308889D4670
:100020000D4A0E4B9A4202D00D498B4206D3002155
:100030000C4B0D4A934206D30C4B184752F8040B55
:1000400043F8040BF1E743F8041BF3E70000000852
:1000500000ED00E0F8FF0320A47100080014002068
:100060002814002028140020F47B0020255D0008BF
:10007000014B6C220021184789570008C9B90E4A64
:100080000E4BDFF84CC0C0E902230D4B0D4AC0E90E
:1000900004C30D4BC0E906230C4B036203F17453F8
:1000A000A3F52303C0E90011A3F692434362084677
:1000B00070476FF07301FAE767E6096A85AE67BBC0
:1000C0003AF54FA57F520E518C68059BABD9831F23
:1000D00072F36E3C2DE9F04FCDB000F108060DF53E
:1000E0008878019100F1280B4246334653F8041BEF
:1000F00042F8041B9B45F9D102ADDFF818A1002797
:100100002C46A9460F2F68D8019B03EB87003F4B75
:10011000984700BAA860D4F818310093009A5AF8AA
:10012000043B4FEAF22181EAB21181EA7262D4E91A
:100130004701414000980140D4F82001414011445A
:10014000D4F82421D4F8100111441944AB68D4F830
:100150000C210B44D4F808110A430240D4F80C01D6
:100160004FEA713C01EA000E8CEAB10CD4F8200190
:10017000C4F8240142EA0E028CEAB15CD4F81C01F6
:10018000C4F820019444D4F814210098C4F804C0A1
:100190001A44C4E94620D4F81021C4F814210137C8
:1001A000D4F80C216344402FC4E943122360C4F8FF
:1001B000083105F10405A5D1336858F8042B134420
:1001C00046F8043BB345F7D14846114B4FF49471C0
:1001D000984700204DB0BDE8F08F286855F8341CD2
:1001E00055F8382C4FEAF04383EA704383EA9020B5
:1001F00055F8143C13444FEAB14282EAF112034429
:1002000082EAD1021344AB6085E700BF9503000882
:10021000D15C0008006200082DE9F843036803F090
:100220003F079B18036024BF4368013305460E4611
:10023000144628BF43609FB1C7F1400991450FD8CC
:1002400000F12808184B4A4608EB07009847174B5F
:1002500041462846984700BB403C3C444E44074634
:10026000DFF848900EE04FF0000806EB0801284642
:10027000C847A0B908F14008A4EB08033F2BF4D805
:1002800046441C463F2CEED864B105F12800064BCD
:1002900022463146384498470020BDE8F8834FF0A5
:1002A000FF30FAE72046F8E733570008D50000088A
:1002B0000AB1024B18471046704700BF19020008E8
:1002C0002DE9F8430368304DDFF8C49003F03F0395
:1002D0005A1C03440E4600F128088021382A04469F
:1002E00083F8281008EB020040D8C2F13802002140
:1002F000A847D4E90073790F41EAC301234D09BA35
:1003000004F16000A847F90009BA04F16400A847A5
:1003100041462046C847074628BBA168304609BA6F
:10032000A847E168301D09BAA847216906F108000D
:1003300009BAA847616906F10C0009BAA847A16982
:1003400006F1100009BAA847E16906F1140009BADC
:10035000A847216A06F1180009BAA847616A06F1A0
:100360001C0009BAA8473846BDE8F883C2F140022C
:100370000021A84741462046C84707460028F2D139
:10038000014638224046B3E789570008B103000808
:10039000D500000807B504220146044B0DEB02000E
:1003A0009847019803B05DF804FB00BF335700087D
:1003B00007B504220191034B0DEB0201984703B0EE
:1003C0005DF804FB33570008002070477047704702
:1003D000014B1B68184700BF00140020014B1B682D
:1003E000184700BF08140020024B1860024B002081
:1003F00019607047001400200814002002680E4B9A
:100400009A4215D1C269A3F11023A3F1EF139A42C6
:100410000ED18368012B0BD8C36813B102699342D4
:1004200006D0436933B18069C31A584258417047B6
:10043000012070471846704755AA00FF70B50C4B55
:100440009D689DB10B4E2846B047014670B9EB68D8
:1004500063B92C690CB9084670BD2046B04728B96D
:10046000E368AB4202D125462469F3E70121F2E7B4
:1004700028140020FD0300082DE9F047404F3C6898
:10048000D4B1BC68C4B100284BD0002949D001FBCD
:1004900000F5B5FBF0F0884243D1281D41D8A907EB
:1004A0000DD025F003060436FC6803E06368B34210
:1004B00039D2A469002CF9D12046BDE8F0872E4638
:1004C000F2E7FB6044E006F120016318203A5A602D
:1004D0000022C3E902242B4822691A6160502A498C
:1004E000D96102B1D36061695961A2699A61B1B100
:1004F0008B619A6902B153614FF0010AC4E9016A44
:1005000023610023C4E905333B69DB0731D51F4B69
:10051000984700282DD01E4B50461B6828E0FB60F2
:10052000E7E70024C8E7A3681BB1194B01201B684B
:1005300098476268DFF85C80921B232A04F1200947
:10054000C1D80123A360D4E90523002AB9D093615F
:10055000A3690BB162695A610023C4E905333B69A1
:10056000DA0706D5094B984718B1094B1B680120DB
:1005700098472A46002148464C46C0479CE700BFA2
:100580002814002055AA00FF669911EE3D040008CA
:10059000041400208957000870B50546002800F0B3
:1005A0008480424E3368002B7FD0B268002A7CD012
:1005B000834203D872681344984203D33C4B012012
:1005C0001B689847A5F120043A4B2046984718B17C
:1005D000374B01201B68984755F8183C012B03D076
:1005E000334B01201B68984755F8143C002245F80E
:1005F000182CC3B19968002942D155F81C2C02F17E
:1006000020015A680A445A6055E905321A6155F8C2
:10061000145C2B6903B1DD60274B204620220021AA
:10062000984723462C462069002836D08268002A45
:1006300033D16368426820331344636003692361E4
:10064000D4E90523F2B923BB436963618269A261DE
:100650000BB39C61A36903B15C61236903B1DC60E6
:10066000154B20220021984733699B071DD5134B5A
:100670009847D0B10E4BBDE870401B680120184769
:100680001346D0E79361A369002BDDD062695A61FC
:10069000DAE7F360F7E7F460DCE7002BE4D1F36816
:1006A000A36103B15C61F460DEE770BD2814002033
:1006B00004140020FD030008895700083D040008C9
:1006C00070B514220C46144E002105461348B0475D
:1006D00013491448144B9847232C1BD915F00303D6
:1006E0001FBF043CE418C3F10403ED1822460021A7
:1006F0002846B047094B0D499D60C3E90054203C92
:100700006C609A6811609A68DA60A1F11021A1F119
:10071000EF11D16170BD00BF895700082814002077
:100720009905000879040008E903000855AA00FFAC
:100730002DE9F04FD54B87B010210446984700288B
:1007400040F09F81A268D2F820B01368D2F824C08C
:10075000D66A156B516B13EB0B0340EB000713EBE1
:100760000C0447F10007A41B936B67F10007641B9F
:1007700067F10007641A67F10007E41A02945468ED
:1007800067F100073C194FEAE77E976A01974EF13F
:10079000000E1CEB04044EF1000E14EB07084EF1A2
:1007A000000EB8EB0508D46B6EF1000EB8EB010833
:1007B0006EF1000EB8EB03086EF1000EB8EB040703
:1007C000039797686EF1000E1EEB0708019F4FEA32
:1007D000EE7949F1000E17EB08084EF1000E16EB0A
:1007E00008084EF1000EB8EB01086EF1000EB8EBF0
:1007F00003086EF1000EB8EB04070497D7686EF19A
:10080000000E1EEB07084FEAEE7949F1000E16EBD9
:1008100008084EF1000E16EB08084EF1000E15EB1D
:1008200008084EF1000E15EB08084EF1000E11EB12
:1008300008084EF1000EB8EB04086EF1000EB8EB9C
:100840000B086EF1000EB8EB0C07059717696EF1F7
:10085000000E1EEB07084FEAEE7949F1000E15EB8A
:1008600008084EF1000E15EB08084EF1000E11EBD2
:1008700008084EF1000E11EB0808019F4EF1000E22
:1008800013EB08084EF1000EB8EB0C086EF1000EE9
:10089000B8EB070857696EF1000E1EEB07094FEA27
:1008A000EE7A4AF1000A11EB09094AF1000A11EB4C
:1008B00009094AF1000A13EB0909019F4AF1000AEC
:1008C00013EB09094AF1000A14EB09094AF1000A7D
:1008D000B9EB07096AF1000A9769B9EB06096AF1F1
:1008E000000A4FEAEA7E1AEB070A4EF1000E13EBFC
:1008F0000A0A4EF1000E13EB0A0A4EF1000E14EB39
:100900000A0A4EF1000E14EB0A0A4EF1000E13EB28
:100910000A0A4EF1000E11EB0A0A4EF1000EBAEB74
:100920000B0AD7696EF1000EBAEB0C0C6EF1000EDB
:100930004FEAEE731EEB070E43F1000314EB0E0EAD
:1009400043F1000314EB0E0E43F1000314EB0E0E03
:10095000019C43F100031BEB0E0E43F10003BEEBC1
:10096000040E63F10003BEEB060E63F10003BEEB61
:10097000050563F10004691A029B64F10004E7179E
:1009800013EB040B039B47F1000E4FEAEE7A13EBD7
:100990000E0E049B4AF1000A4FEAEA7613EB0A0AAC
:1009A000059B46F10006F5179E1945F10005361B1B
:1009B00065EB070518EB05084FEAE57343F1000501
:1009C00019EB05094FEAE57343F100031CEB030C37
:1009D0004FEAE37545F10005BCEB040C65EB070538
:1009E00049194FEAE57343F10003641847EB030329
:1009F000DF171BEB030547F1000B1EEB0B0E4FEA55
:100A0000EB7141F100011AEB010A15604FEAE17543
:100A100045F1000576194FEAE57141F10001F61A3A
:100A200061EB070118EB01084FEAE175C2F804E039
:100A3000C2F808A0D66045F10006F11719EB0606CA
:100A400041F10001CD171CEB010C45F10005BCEB99
:100A5000030165EB0705641956614FEAE57691617C
:100A600046F100011B1947EB0107C2F81080D36162
:100A700057B902F11C0301463C3243F8041F93426C
:100A8000FBD107B0BDE8F08F0148FAE7D126000896
:100A900080B0FFFF70B51B4B04460D4698471A4BBC
:100AA00020469847032D257028D1184B184A6366B5
:100AB00001250823E260174A6262C4E90153C4E9D0
:100AC0000753C4E91353C4E90A53134AA363134BEE
:100AD0006265134A134E6564C4E90F35124BA36473
:100AE000C4E90C25201DB047A06504F14C00B047B7
:100AF000C4E917050020C4E91D0070BD00230B48A0
:100B00002370FAE7ED12000875120008310700089B
:100B10008063000800630008606300084063000809
:100B200020630008792800080C14002080B1FFFF22
:100B300070B50C24054D04FB0104A04200D170BD2A
:100B400000F10C06A8473046F7E700BF99260008D9
:100B500070B50C24054D04FB0104A04200D170BD0A
:100B600000F10C06A8473046F7E700BFA5260008AD
:100B7000F0B50D4685B00446104B01A80C3516465D
:100B800098470F4B002128469847211D0D4B0746DB
:100B90002A4601A89847044648B90B4B002F0CBFC2
:100BA000002206F0010201A928469847044601A840
:100BB000064B9847204605B0F0BD00BF99260008B7
:100BC000852A0008952C0008D1200008A5260008D9
:100BD0002DE9F0410C460646114620461A460C4BBC
:100BE0009847054648B90B4FDFF82C802368002B47
:100BF00003DA00212046B84710B92846BDE8F08145
:100C0000321D21462046C0470028EFD00546F4E7B4
:100C1000952C0008852A0008812C00082DE9F04158
:100C20000C460546114620461A46274B984706466D
:100C300060B96B6E6BB9254B2A1D2146204698473B
:100C400000283ED1224A1368013313603046BDE8C4
:100C5000F0812368002B08DB1E4B20469847AB6DC4
:100C6000B0EB430F08D91C4EF0E701461B4B204662
:100C700098470028F0D0F6E76B6E2046984700BBF7
:100C8000164FDFF8608004352368002B0EDB144F0D
:100C9000DFF8548029462046B8470028D2DB2A4690
:100CA00021462046C0470028F4D00AE00021204613
:100CB000B8470028EBD02A4621462046C0470028E6
:100CC000E2D00646C2E700BF092D000875320008D1
:100CD000441400207928000880B0FFFF852A00080E
:100CE000032A0008812C0008612B00082DE9F0433D
:100CF00001F118071F4B85B005468946384600218B
:100D000098470446002830D01B4B01A898471B4B3E
:100D10002A1D394601A89847044618BB09F10C085A
:100D2000174E01AB424641462846B0470446C8B973
:100D300001AB1A4619462846B047044690B901ABA4
:100D40004A4649462846B047044658B901AB424690
:100D500041462846B047044620B90A4B012138468F
:100D600098470446084B01A89847204605B0BDE8BF
:100D7000F08300BF852A000899260008A9380008DA
:100D80001D0C0008E1270008A52600080968014B92
:100D9000184700BFED0C00082DE9F04186B014465D
:100DA00005461E4603A81E4B0F469847234600964D
:100DB0001C4C2A1D022103A8A047044628BB07F1AA
:100DC0001802194E03AB11462846B0470446E0B955
:100DD00007F10C0803AB424641462846B04704469B
:100DE00098B903AB1A4619462846B047044660B97D
:100DF00003AB3A4639462846B047044628B903AB08
:100E0000424641462846B047044603A8074B984748
:100E1000074814F10E0F18BF204606B0BDE8F08158
:100E200099260008613800081D0C0008A526000856
:100E300000B3FFFFF8B5094E094F0C46051D2946C2
:100E40002046B047002801DA002005E02A46214666
:100E50002046B8470028F2D0F8BD00BF032A00089A
:100E6000612B000870B50C460546114620461A460F
:100E7000044B984728B921462846034BBDE87040EB
:100E8000184770BD812C0008350E000870B5064D5E
:100E90000446A84704F10C00A84704F118002B46AB
:100EA000BDE87040184700BFA52600082DE9F347AC
:100EB00013F07E0F15460C460CBF01220022074698
:100EC000DFF86C800192294620461E46C3F345098F
:100ED000C04728BB04F10C0A019A05F10C015046E9
:100EE000C047E8B909F1FF335A425A4105F12401DC
:100EF00020460192C04798B9019A05F13001504649
:100F0000C04768B9084BF20921463846984738B9B6
:100F1000064B012104F1180002B0BDE8F047184764
:100F200002B0BDE8F08700BF710B0008E1270008A0
:100F3000D120000870B50C460546064B012120461D
:100F4000984728B921462846034BBDE8704018470A
:100F500070BD00BFCD280008350E00082DE9F04710
:100F600013461E4F05460C461646B84748BBAB69AC
:100F70004BBB1B4B032221462046984708BBDFF89A
:100F80006880DFF868902368002B0FDB3346224629
:100F900021462846B847A0B922462146114C05F102
:100FA0001C032846A446BDE8F047604700212046C0
:100FB000C0470028EAD02A1D21462046C8470028FD
:100FC000E1D0BDE8F087DFF81C8005F11003224670
:100FD00021462846C0470028D8D0F2E71D0C00085B
:100FE000D92C0008650E0008852A0008812C00080D
:100FF0002DE9F04F2DED028B83B01E4601918749FC
:10100000DFF838820B6801330B6083690446914630
:1010100006F10C05002B40F0C88002F118031A46B7
:101020002946C047002840F0F48006F11807DFF891
:1010300008A22B464A4639462046D047002840F0B1
:10104000E88006F1240BDFF8E4A12B464A46594616
:101050002046D047002840F0DC805B463A462946CF
:101060002046C047002840F0D4806D4B032229461B
:1010700030469847002840F0CC806A4B31462046E5
:101080009847002840F0C58006F1180308EE103A92
:1010900009F10C0B18EE101A5B465A462046C04761
:1010A000002840F0B680604B18EE101A20461F460C
:1010B0009847002840F0AD8018EE103A4A4629467D
:1010C0002046C047002840F0A48029462046B84763
:1010D000002840F09E8006F1240A18EE103A18EE1F
:1010E000102A51462046C047002840F092805146C1
:1010F0002046B847002840F08C8018EE101A33467E
:1011000032462046C047002840F0838018EE102A5F
:1011100018EE101A454F2B462046B847002878D1C4
:1011200018EE102A18EE101A2B462046B847002851
:101130006FD118EE103A2A4629462046B8470028B3
:1011400067D133462A4629462046C047002860D149
:1011500053462A4629462046B847002859D109F166
:1011600018035A4651462046C047002851D12E4BFD
:1011700051462046984700284BD118EE101A019886
:101180002B4CA047002844D1019B294603F10C00B9
:10119000A04700283DD1019851461830234603B09E
:1011A000BDEC028BBDE8F04F184713462946C047F7
:1011B00078BB1B4B032229463046984748BB194B46
:1011C00031462046984720BB04F110070146194BD1
:1011D0003846984700283FF457AF09F118031A46DC
:1011E00029462046C047A0B906F1180A2B462A46D0
:1011F00051462046C04760B93B46524629462046E4
:10120000C04730B90C4F2B46324631462046B847CE
:1012100037E703B0BDEC028BBDE8F08F401400202F
:10122000212E0008350E0008350F0008D10B0008EC
:1012300071270008852A0008650E00081D0C0008AB
:10124000036B2BB1C36B002B0CBF02200120704736
:101250001846704770B5064D0446A84704F10C00C7
:10126000A84704F118002B46BDE87040184700BF9E
:101270009926000870B5002504460D4E00F8045B61
:10128000B04704F11000B04704F11C00B047094B0F
:1012900004F12800984704F14C00B047C4E9165502
:1012A000C4E91855C4E91A55C4E91C55A56770BDB1
:1012B000992600085512000810B5064B04469847B9
:1012C00004F17C00044B984704F18800034BBDE80F
:1012D000104018477512000899260008551200089A
:1012E00008B1014B184770478D0E00082DE9F041F9
:1012F000044618B3036E012B09D0114D1030A847D6
:1013000004F11C00A8470F4B04F128009847636FB5
:1013100083B920460C4BBDE8F0417C21184706FB01
:101320000500B8470135D4E91D03AB42F7D8074B98
:101330009847EEE7034F00252426F4E7BDE8F08147
:10134000A5260008E1120008D15C0008DD030008B2
:1013500010B5044658B1064B984704F17C00054B84
:10136000984704F18800044BBDE81040184710BDB1
:10137000ED120008A5260008E112000870B50A4E1B
:1013800004460D46B04768B905F10C0104F10C00A4
:10139000B04738B905F1180104F118003346BDE82B
:1013A0007040184770BD00BF7127000870B501215B
:1013B000084D0446A84758B9012104F10C00A8477C
:1013C00030B901462B4604F11800BDE870401847BB
:1013D00070BD00BFE12700082DE9F04F2DED028B15
:1013E0009146774A9A461368013381B01360DAF860
:1013F00020300C9D04460E462BB9724801B0BDEC5E
:10140000028BBDE8F08F09F11807DFF8C0810021D9
:101410003846C04740B951466B4B304601B0BDEC31
:10142000028BBDE8F04F18470AF1180B002158460F
:10143000C04708B94946EFE7644B01215846984731
:101440000028DAD1DFF89CB13B463A4629462046CF
:10145000D8470028D2D105F10C083B462A46414620
:101460002046D8470028C9D153462A462946204657
:10147000D8470028C2D10AF10C0342464146204613
:10148000D8470028BAD1DFF858A14B462A4629464A
:101490002046D0470028B1D109F10C0208EE102AED
:1014A0001346414642462046D0470028A6D1002197
:1014B000464B284698470146B8B9444B40469847A2
:1014C00058B92046424C2B464A463146A44601B004
:1014D000BDEC028BBDE8F04F60473E4B304601B09B
:1014E000BDEC028BBDE8F04F18472B463A4606F19B
:1014F00018012046D847002880D105F118072B464F
:101500002A4639462046D84700287FF477AF05F1B0
:10151000240A2B463A4651462046D84700287FF4F5
:101520006DAF4B463A4639462046D84700287FF4EF
:1015300065AF294B39462846984700287FF45EAFAF
:10154000264B29462046984700287FF457AF43464C
:10155000424631462046D84700287FF44FAF2B46FD
:1015600032461F4D31462046A84700287FF446AF3B
:101570005346324631462046A84700287FF43EAF06
:1015800033463A4639462046A84700287FF436AF0E
:1015900043463A4639462046D84700287FF42EAFC6
:1015A00018EE103A524651462046D84700287FF49C
:1015B00025AF53463A4606F10C012046AC4686E775
:1015C0003C14002080B0FFFF7D130008852A00082E
:1015D000F10F0008AD13000871270008350F00084F
:1015E000D10B00081D0C000808B50021034B183072
:1015F0009847B0FA80F0400908BD00BF852A00086E
:101600002DE9F04F824689B00C4617461D4623B996
:101610004549084609B0BDE8F08F061D434B3046EA
:101620009847434B804650469847012881463ED113
:101630003B783BB9012DEBD13E4B204609B0BDE8CC
:10164000F04F184708F1010BAB45E1D8791C3A4B34
:1016500042462046984701460028DAD14946374A93
:1016600004F11800904701460028D2D197F8009065
:10167000B9F1040F0ED14FEA48020132AA42C7D194
:10168000424607EB0B0104F10C0009B0BDE8F04F36
:1016900001F000B9A9F10202012AB9D8AB45B7D1CE
:1016A000274F3046B847012804F10C0501D02549E1
:1016B000AFE701213046B84701288046F7D1224BD9
:1016C00005A898472946214B22465046984701468F
:1016D00018BB31461E4B424605A898470146E0B963
:1016E00002211C4B05A898470146B0B90090294635
:1016F000194C334605AA2846A047014668B903900D
:101700002846B84709F001098145039905D03146BB
:10171000124B2A46284698470146114B039105A8CB
:101720009847039975E700BF80B0FFFF8528000840
:1017300041120008AD13000895280008E1270008B1
:101740002128000880B1FFFF992600085D0F0008DE
:10175000A92C000885290008F9320008952C0008FA
:10176000A52600082DE9F0410D46274F012188B03C
:10177000064605F11800B847014650B9234B3046DC
:10178000984701283ED128460191B8470028019981
:1017900001DA1F4C32E005F10C042046B84700285E
:1017A000F7DB311D1B4F01912846B8470028F0DABE
:1017B00001992046B8470028EBDADFF86C8002A8D0
:1017C000C04705A8C0472346224602A9124C30460E
:1017D000A047044668B9114B2A4605A930469847E8
:1017E000044630B905A902A8B847094B041E18BF22
:1017F0001C4602A80A4DA84705A8A847204608B0DD
:10180000BDE8F081074CF9E7852A0008411200087D
:1018100080B3FFFF032A00081D0C00085D0F0008BD
:10182000A526000880B0FFFF9926000838B50C4BAC
:101830000546984701280C4601460DD1094B204624
:101840009847002806DB084B05F14C0120469847D5
:10185000002803DB054838BD0548FCE70020FAE70F
:1018600041120008852A0008032A000880B3FFFF00
:1018700080B0FFFF2DE9F04F2DED028B9A4608EE68
:10188000101AA84BBBB0114605469046984704462F
:10189000002840F09680A44B5146284698470446BD
:1018A000002840F08E80A14B284698470128074623
:1018B00040F0B881EB6D01334FEA530B24219C4B70
:1018C000022098470646002800F0AA81994B06F1AD
:1018D00024099847974B48469847974B0D94042105
:1018E00019A8984751463046DFF87CA2D047CDF87A
:1018F00008A0044600283BD18246D34524D1DFF816
:101900006CA2CDF8349001220DA92846D047044698
:1019100070BB19AB894C009332464B46494628466A
:10192000A047044620BBCDF8349001220DA92846DB
:10193000D0470446E0B906F11800DFF83492C847F2
:1019400006F13C00C84713E0BAFBFBF307FA03F1CA
:10195000C9B224220BFB13A302FB0162002B36D079
:10196000774C19AB11462846A047044600283CD0C6
:10197000744B042119A898478CB90DF11009DFF8B0
:10198000F4A14846D0470DA8D04705F14C0A6E4B4C
:1019900021465046984701282AD0A4F59F446B6FF2
:1019A0009E4209D046B1694D3046A84706F1240051
:1019B000A847674B304698471CB118EE100A634B96
:1019C000984720463BB0BDEC028BBDE8F08F49083C
:1019D00001EBC1011046029B039206EB810198477F
:1019E000039A04460028BBD0C2E70AF1010A84E743
:1019F0002146554B40469847B0FA80F35B09029365
:101A00004146544B484698470446002857D1524B0C
:101A1000424651460DA89847044600284FD1029AE5
:101A20004E4B0DA9484698470446002847D14C4BD9
:101A30000BF10102014619A89847434A0DF16408C9
:101A40004346A2461746D345039365D051464846C0
:101A5000B847039B1A78104303F8010B0BEB0A01FC
:101A600048460393B847039B13F8012C42EA400011
:101A700003F8010C0AF1010AE5E798F8010098F86B
:101A8000002080EA0E03D94301F0010112FB01F2AC
:101A90005BB252B203EA0209534008F8013F18F85A
:101AA000013C00EA0E0E49EA0E0E43EAC1115FFA4C
:101AB0008EFE08F8011C0CF1010CE245DDD20DA8E8
:101AC000DFF8AC80C04704A8C047002C7FF467AFA4
:101AD000184B244C04A89847174B04210DA898478D
:101AE0000BF1E8036B4418EE101A13F8843C3246ED
:101AF0002846A0470446002865D1469B002B7FD08E
:101B0000DDE9462318EE101ADFF86C802846C0473E
:101B1000002875D0044656E04FF0000E4FF0010C3F
:101B2000CBE700BF2D180008651700084112000818
:101B3000D103000855120008310B0008D913000822
:101B4000F10F0008510B000821280008E1120008DD
:101B5000DD03000871270008952C0008D12000083B
:101B600089570008AD0E00087D1300088D0D000890
:101B7000A526000899260008990D00080DF13408E3
:101B800018EE102A18EE101A434628460BF1FF3BB8
:101B9000C8470028BED119AB324613F80B3004A950
:101BA0002846D0470028B5D118EE102A18EE101A92
:101BB0001D4FCDF8008004AB2846B8470028A9D1B6
:101BC000BBF1000FDAD1194B04A89847184B042138
:101BD0000DA89847002C7FF4E2AE029A154B18EE40
:101BE000101A28469847044600287FF4D8AE469B32
:101BF0005BB918EE101A104B284698470446CEE6FB
:101C0000DFF84490DFF844A0DAE70C4CDDE9462326
:101C100018EE101A2846A04704460028E9D0BEE670
:101C2000074CBCE6074CCCE6D91300088D0E000823
:101C3000510B0008710B0008ED0C0008990D00080D
:101C400080B2FFFF80B0FFFFF10F0008AD0E00086B
:101C50002DE9F04186B0144607461E4603A82E4BD8
:101C6000DFF8D4800D46984700212046C04780B950
:101C70002A4B314638469847044618B9284B28461F
:101C80009847044603A8274B9847204606B0BDE86E
:101C9000F08101212046C04758B9204B31463846D3
:101CA000984704460028EDD11F4B314628469847F7
:101CB000E7E74FF0FF312046C04710BB174B3146D6
:101CC0003846984704460028DCD1174B3146284651
:101CD000984704460028D5D10C3501462846C04710
:101CE000124B06462A46391D03A898470446002889
:101CF000C8D1321E0E4B18BF012203A928469847AF
:101D0000BFE70023CDE9003322463346094C29467C
:101D10003846A047B5E700BF9926000865170008B8
:101D2000AD130008A52600087D130008952C0008B7
:101D3000D120000875180008852A00082DE9F04117
:101D4000984698B01C4B0546984701280E46144605
:101D500030D11A4B03A80CAF9847194B04213846D1
:101D6000984743462246DFF8708003A92846C047BB
:101D70000446A0B9DDE91E2331462846C047044683
:101D800068B9104C0097334603AA31462846A0474D
:101D9000044620B90C4B31462846984704460B4B65
:101DA0003846042198470A4B03A89847204618B0A4
:101DB000BDE8F081074CF9E7411200085512000810
:101DC000310B0008D9130008ED0C0008510B000876
:101DD0008D0E000880B1FFFF511C0008F7B5C56DDE
:101DE00007350F461146EA089A4228BF1A460646AA
:101DF000134B3846144698470546E8B9F36DB3EBE4
:101E0000C40F4FEAC40110D306F14C020D4B0192EE
:101E100011463846984700280EDB019A0A4B39468E
:101E2000384603B0BDE8F0401847C91A3846074B9A
:101E300098470028E8D00546284603B0F0BD00BF0B
:101E400095280008032A0008952C00088529000819
:101E50002DE9F04F9DB00446059313A8454B464D20
:101E600088469146DDE92667984707A8A8470AA84B
:101E7000A8470DA8A84710A8A847636D002B77D0E6
:101E8000DFF818B101213046D84700285DDB04F1A6
:101E90004C05DFF80CA129463046D047002854DA1B
:101EA00001213846D84700284FDB29463846D0471D
:101EB00000284ADA4B46424607A9DFF8E880204668
:101EC000C0470346002841D12C4B2A4639460AA870
:101ED00098470346002839D1DFF8CC800AAA07A921
:101EE0000DA8C0470346002830D10DA9244F2A462B
:101EF0000846B847034648BB0AAA314610A8C0475F
:101F0000034618BB10A92A460846B8470346E8B955
:101F1000059B029010A90193009104F1280320462B
:101F20000DAA184C13A9A047034678B9164B13A85D
:101F3000984750B913A92A460846B847034628B916
:101F4000314613A8D047034600B1104B104A059301
:101F500013A890470F4C07A8A0470AA8A0470DA8B0
:101F6000A04710A8A047059B18461DB0BDE8F08FFC
:101F7000094BF9E75512000899260008A93800080E
:101F8000753200083D1D0008E915000800B2FFFF8A
:101F9000E1120008A526000880B0FFFF852A00088E
:101FA000032A0008DD1D0008092D00082DE9F0476F
:101FB0008CB006AF149D224C0493804609AE38467F
:101FC0001D4489469246A0473046A0471D4C302309
:101FD00005AA294604A8A04750B1A0F59F441A4D70
:101FE0003846A8473046A84720460CB0BDE8F087E1
:101FF000DDE9043213449D4220D1144C3A4629466F
:1020000004A8A0470028E8D13246294604A8A047E2
:102010000028E2D1159B0E4C0097CDE90163524692
:1020200008F1880349464046A04704460028D6D117
:10203000049A084BAA4218BF1C46D0E7064CCEE7CC
:1020400099260008093C0008A5260008353C000830
:10205000511E000800B4FFFF1AB0FFFF13B50024A3
:102060000194049C0094024CA04702B010BD00BF34
:10207000AD1F0008004B1847B912000808B1014B0A
:10208000184770475113000843421843C017704760
:10209000484041420843C043C00F7047431A48407C
:1020A000594008405840C00F7047F0B504395F42AE
:1020B0000025013B854200D1F0BD52F8256051F862
:1020C000044F3E401C4034430C600135F2E70000F1
:1020D0002DE9F843164B0F46496805469146984747
:1020E0008046C8B92C68A868631C3C6801345C4011
:1020F00004EA49045C40013C2C60C9F100064B46EF
:10210000D7E901210B4C46EA0906A047F6177B6880
:10211000F6436A689A4202D84046BDE8F883A96847
:1021200051F82320324041F823200133F1E700BF6A
:10213000D1260008192200082DE9F04B0025DFF810
:102140003490074688462E46013A02D23046BDE812
:10215000F08B58F822B057F8224058462146C8471D
:10216000594605432046C847C5F1010303401E43B5
:102170000543E9E79D20000802464FF00043002098
:102180001A4204D1013020284FEA5303F8D1704796
:1021900008B569B1013919B150F82130002BF9D0D7
:1021A00050F82100034B9847C0EB411000F120018B
:1021B000084608BD7921000839B101F18041013993
:1021C00000EB81018142034600D270471B680A6818
:1021D0001BBA12BA40F8042B41F80439F2E70000A8
:1021E00070B50C460A4B01462068164698470123F5
:1021F00080F001050020B34205D3064B984700F05C
:102200000100284370BD54F8232001331043F2E746
:102210009D2000088920000810B404468C42104616
:1022200006D00A462146044CA4465DF8044B60479C
:102230005DF8044B704700BFAB2000082DE9F0416A
:102240001D4613F0030318BF012303EB95038B42D4
:1022500006460C46904613D8A9B18F000B4B3A4660
:10226000002198472DB1781B094B2A46414630443E
:1022700098473046074B214698470020BDE8F0813B
:102280006FF00700FAE70846F8E700BF8957000833
:1022900033570008B9210008F0B455098D4202F007
:1022A0001F0301D805D17BB38A00F0BC184B002175
:1022B00018471F2A14D900EB8504061F00EB81077D
:1022C000BC42A1EB050201D1002407E054F8042B25
:1022D00046F8042FF4E740F8224001328A42FAD34C
:1022E00033B100EB81010024C3F12006884201D103
:1022F000F0BC704751F8045C25FA03F2224341F820
:10230000042D05FA06F4F1E71F2AF1D91A46DBE796
:1023100089570008F0B50024844620469C4200D12D
:10232000F0BD51F8245052F824702E182CBF01250E
:102330000025BE194CF8246045F100000134EDE79A
:10234000F0B50024064620469C4200D1F0BD51F86D
:1023500024C052F82470ACEB0005AF4294BF4FF09C
:10236000000E4FF0010EED1B46F8245084452CBFA3
:1023700070460EF101000134E6E700002DE9F0415E
:102380008B4228BF0B46069CCD1ADE0803F00701DE
:102390000023013E06D2013945D2013D4CD21846F8
:1023A000BDE8F08152F8087B50F808CB52F804ECF5
:1023B00050F8048CE4FB67C3E4FB6E8340F808CC60
:1023C00040F8048C52F8087B50F808CB52F804EC23
:1023D00050F8048CE4FB67C3E4FB6E8340F808CC40
:1023E00040F8048C52F8087B50F808CB52F804EC03
:1023F00050F8048CE4FB67C3E4FB6E8340F808CC20
:1024000040F8048C52F8087B50F808CB52F804ECE2
:1024100050F8048CE4FB67C3E4FB6E8340F808CCFF
:1024200040F8048CB5E700BF52F8046B0768E4FB82
:10243000667340F8047BAEE70268D31840F8043BAB
:102440002CBF01230023A8E70168881C400000F08E
:1024500008000844032300FB01F2C2F10202013B21
:1024600002FB00F0F7D14042704700002DE9F04F29
:102470002DED028B87B0DDE912B908EE103A149BFE
:102480000493159B039192464FEAC90202930021DF
:102490008046043218461D4B9847029E002409F1DD
:1024A00002014C4516D1029B194E03EB84015A469A
:1024B0002346404651F82450B0476840C3B22046F6
:1024C000144C0A46A446414607B0BDEC028BBDE859
:1024D000F04F6047039B376853F82430DAF8002048
:1024E0000D4D009302FB0377049A059118EE103A04
:1024F000574330465246A8470599009730464B4609
:102500005A46A847043605990134CAE78957000896
:1025100041230008AB2000087D2300082DE9F84F77
:1025200012F0030418BF012404EB92048C42074606
:102530000D4690461E464FEA840BC2EB840918D81C
:10254000DFF838A04A4600212D1BD047AA00002101
:1025500007EB0B00D0470A98424607EB0901B0474A
:10256000054618B9044B2146384698472846BDE829
:10257000F88F6FF00305F9E7B921000889570008C3
:102580002DE9F04F064685B08A461C46194610468E
:102590001B4B90469847C31D272B4FEAD30B23F0C4
:1025A00007038CBF4FF01E094FF0FA091D1A0F9B4D
:1025B000144F00935A460E9B21463046B8470746B3
:1025C000B8B9114B2A46214630469847B9F101095E
:1025D00013D00E4B22463146504698470C4B039081
:1025E0002246414630469847039B002BDFD0002807
:1025F000DDD0384605B0BDE8F08F6FF00D07F8E785
:10260000912100081D25000899220008E1210008F9
:102610003921000830B500249C4201D1104630BD5C
:1026200051F82450AD1A40F8245034BF0122002242
:102630000134F1E72DE9F84FDFF830B0DFF830A0D2
:1026400006460F461546984600244FF00C094146B1
:102650002046D84709FB0471C2B23046D04710B9B2
:102660000134A542F3D1BDE8F88F00BF91200008E6
:10267000D12000081FB5069CCDE9023453680193B0
:1026800093680093D1E90132024C0146A04704B09F
:1026900010BD00BF6D24000800230122C0E9002303
:1026A0008360704710B5044668B1806830B16168D6
:1026B000054B89009847A068044B984700230122E6
:1026C000C4E90023A36010BDD15C0008DD0300084D
:1026D00042F21073994270B504460D4602D96FF06C
:1026E0000F0070BD43688B4216D20C4B0421284664
:1026F000984706460028F2D0A16859B16268084B95
:10270000920098476168A068064B89009847A068C6
:10271000054B9847C4E901560020E2E7D1030008C1
:1027200033570008D15C0008DD03000870B504468B
:102730000D4619B90B4B9847002070BD42688A427C
:1027400007D1094B8068920000219847012323603C
:10275000F2E7044B984729462046044BBDE87040F9
:10276000184700BFA526000889570008D126000891
:10277000884270B505460E460AD04C6840686CB970
:10278000C8B101232B608200124BA86821469847EC
:10279000002010E0B36853F8243013B9013C002C3A
:1027A000F8D1013433682B60844205D90A4B2146A5
:1027B0002846984740B170BD021BA868054B92009F
:1027C000002100EB84009847B168A868034BA20081
:1027D000DDE700BF89570008D126000833570008FD
:1027E00070B50D4B0E46012104469847054688B941
:1027F00062680A4B92000146A0689847A36886EA7F
:10280000E672002EA2EBE6721A60B4BF4FF0FF33FF
:1028100001232360284670BDD1260008895700088F
:102820004368B1EB431F3FBF4A09836853F8220056
:1028300001F01F013ABF20FA01F101F00100002070
:102840007047F0B5002145680A46954202D1002440
:102850002046F0BD836853F82260002326FA03F770
:10286000FF0701EB0304F3D40133202B01EB030436
:10287000F4D101322146E8E7D0E90110004B1847B6
:102880009121000808B5024B98470730C00808BDE1
:102890007928000870B50E4612F0030118BF012117
:1028A000084B01EB920105461446984740B9234670
:1028B000054CD5E901103246A446BDE8704060479A
:1028C00070BD00BF2D2700083D220008F8B52B4B36
:1028D00005460E464C0901F01F0798476B683044C7
:1028E000B0EB431F05D81F2E0FD8002F41D1002079
:1028F0000AE010F01F0118BF012101EB5011204B1D
:10290000284698470028EED0F8BD6B686FF00300AA
:102910009A0060431946A142A2F104020CD8E21ABF
:102920009C4288BF002213449B000022043B191DD7
:10293000DBD0A968CA50F9E7AE6806EB020C013992
:102940005CF800C046F802C0E5E7AB6853F8241015
:1029500001FA07F043F82400A86850F82430134324
:1029600040F8243021FA06F201346B68A342ECD817
:10297000BDE70022C7F12006F7E700BF792800086D
:10298000D126000808B50A46416811B18068024B9B
:102990009847002008BD00BF9922000830B5436861
:1029A0002BB94A6862B9181E18BF012028E0826856
:1029B00002EB830252F8042C002AF2D1013BEFE72C
:1029C0008C6804EB820555F8045C35B9013AE9E7F7
:1029D000012015E04FF0FF3012E0002BFAD09342B7
:1029E000F6D8F7D3013B826852F8231054F823201D
:1029F0009142EDD803F1FF33ECD35A1CF3D1002000
:102A000030BD30B54368024623B9486858B9002B39
:102A100036D12FE0906800EB830050F8040C0028BA
:102A2000F3D1013BF0E78C6804EB800555F8045CBA
:102A300015BB0138EAE702D20868404221E010687D
:102A40000968002803DD002907DA012019E00029C0
:102A500003DD10B14FF0FF3013E0013B916851F8F6
:102A6000235054F823108D420BD803F1FF33E4D3E5
:102A7000591CF3D1002004E0002BDDD08342DAD9C9
:102A8000106830BD1FB581EAE173A3EBE173002943
:102A90000093B4BF4FF0FF3301230193012302934E
:102AA00001A9034BCDF80CD0984705B05DF804FBA5
:102AB000032A000890422DE9F8430546884614464B
:102AC00002D0884207D1A04601232B60D8F80440E9
:102AD0003CB9002003E01F4B98470028F3D0BDE825
:102AE000F883D8F8083003EB84034FEA840953F8DD
:102AF000043C0BB9013CEBE7174F21462846B84789
:102B00000028ECD1AE68D8F80820DFF850802346C2
:102B100031463046C04706EB09038046B8F1000F46
:102B2000D7D06A68A24204F1010607D83146284688
:102B3000B8470028D3D1AB6803EB8403186810EBC7
:102B4000080043F8040B2CBF4FF001084FF00008B9
:102B50003446E3E771270008D12600081523000852
:102B60002DE9F041546805460E4690463CB971681F
:102B7000A1420ED26FF009073846BDE8F081D8F8BF
:102B8000083003EB840353F8043C002BEFD1013CE5
:102B9000ECE71C4B2846984707460028ECD17268A2
:102BA00094420BD2AE4209D0B168A868164B121BF2
:102BB000920001EB840100EB840098476A6870681A
:102BC000824207D9AB68121A920003EB8000002101
:102BD0000E4B9847D8F80820B168A8680C4E2346D9
:102BE000B047024610B901232B60C5E7A9686B689E
:102BF00001EB84011B1B0846064CA0470028F2D0BD
:102C0000B8E700BFD12600083357000889570008ED
:102C100041230008152600082DE9F8439E460C685C
:102C2000136803FB04FC63467646734305460F4670
:102C3000914619D50F4B114638469847B0F1000818
:102C40000D4B0ADB4A4639462846984780B9B8F109
:102C5000000F08BF01242C600AE03A464946284686
:102C6000984728B96442F6E7044B98470028F2D009
:102C7000BDE8F8839D290008612B0008B52A0008EB
:102C800010B4034C0123A4465DF8044B604700BF19
:102C9000192C000810B4034C4FF0FF33A4465DF824
:102CA000044B6047192C00081FB582EAE273A3EBBE
:102CB000E273002A0093B4BF4FF0FF330123019366
:102CC0000123029301AA034BCDF80CD0984705B01D
:102CD0005DF804FB812C00081FB582EAE273A3EBC8
:102CE000E273002A0093B4BF4FF0FF330123019336
:102CF0000123029301AA034BCDF80CD0984705B0ED
:102D00005DF804FB952C00082DE9F04F8BB00023F3
:102D1000029288424FF00102CDE90423CDE9063248
:102D2000CDE9083307460E4606D1384B04A898472C
:102D30000446002831D104AE029B9F4207D1334B99
:102D4000394607A89847044638BB07AD0295D6F820
:102D500004B0BBF1000F29D14FF0010A029BD3F858
:102D60000480B8F1000F2DD14FF0010A284A0BEB77
:102D7000080138469047044678B90146254A384646
:102D80009047044648B981460BF10101C14524D161
:102D9000BAF1000F32D001233B601F4D07A8A847AE
:102DA00004A8A84720460BB0BDE8F08FB26802EB3C
:102DB0008B0252F8042C12B90BF1FF3BC9E74FF01C
:102DC000000ACBE7029B9A6802EB880252F8042CB7
:102DD000002ACBD108F1FF38C3E7029BB8689A6894
:102DE0000E4D52F82920009200EB8900B268039141
:102DF0005B46A84709F101090399C7E7029A3368BE
:102E0000126853433B605446C7E700BF7127000870
:102E1000D1260008E1270008A52600087D23000828
:102E20002DE9F3414F680546884616463FB1D8F86C
:102E3000083003EB870353F8043C3BB146B9114B10
:102E40000021284602B0BDE8F0411847013FEDE7F8
:102E50000D4B791C28469847044670B90B4B4146E8
:102E600028469847044640B9013E0096D5E901102E
:102E7000D8F80820064D3B46A847204602B0BDE8DA
:102E8000F08100BFE1270008D12600087127000863
:102E90007D2300082DE9F04F2DED028B99B008EE4F
:102EA000103A01908B4618460021804B15469847F2
:102EB000002800F0C9810323139315AB00240126D9
:102EC000149318EE101A7A4B12962846CDE9066430
:102ED000CDE90846CDE90A44CDE90C64CDE90E46BA
:102EE000CDE910449847A04228DA019B4BB9BBF1C9
:102EF000000F1BD10024204619B0BDEC028BBDE8A9
:102F0000F08F214601986B4B984704460028EED07D
:102F1000694D06A8A84709A8A8470CA8A8470FA864
:102F2000A847664B0C2115A89847E4E7644B29464F
:102F30005846984704460028EAD1DBE7604F294607
:102F400006A8B84704460028E2D10DF1240A18EE7D
:102F5000101A5046B84704460028D9D16968099626
:102F600006960231574E0CA8B04704460028CFD130
:102F70000146504B0CA8984704460028C8D1696800
:102F80000FA80231B04704460028C1D14E4B50462D
:102F9000984700F01F001F284C4A75D0C0F11F064B
:102FA000314606A8904704460028B1D1474A314629
:102FB00050469047454A04460028A9D1079FDDF8AE
:102FC0002880A7EB08034FEA43194946504600936F
:102FD0009047044600289BD1009B9B0000935146DC
:102FE0003B4B06A898470028009B4FDA394B4946CF
:102FF00050469847044600288AD108F1FF330293CF
:103000009B00039308F18043023B9B00049307F16C
:103010008043013B07F1FF3907F18047A3EB080824
:10302000023F4FEA8808BB000093029B994555D8A0
:10303000019B5BB118460CA9214B984710BB18EEB9
:10304000102A2B6812685343019A1360BBF1000FDA
:103050003FF45EAF1F4B314606A8984790B92B68E6
:10306000069306A9164B584698470146002840F09B
:10307000E9800E4B5846984700287FF449AF01235A
:10308000CBF80030044643E7264697E70E980093B6
:10309000C1580131C15006A90F4B52460846984706
:1030A000009B0446002899D032E700BF852A00081B
:1030B0009D290008E1270008A5260008D15C00082A
:1030C00071270008D126000879280008CD280008BB
:1030D000032A000885290008952C00080398089BFE
:1030E0000B9A53F8291012580E98914200EB0807DA
:1030F0004FEA890A0597C0F08A804FF0FF3340F805
:103100000830B9F1010F88BF009A089B8ABF9A184E
:10311000002252F8042C1592B9F1000F00F08E80B5
:10312000009A9A58169253F80A300E9A179352F84A
:103130000830DFF83CA1464F013342F808300E9AC0
:1031400052F80830013B42F8083000210FA8D04760
:10315000002897D1029B002B72D00B9B049A9B589E
:10316000119A13600B9B039A9A58119B5A600E9BFD
:103170000FA953F80820374B08469847002881D1FB
:1031800012A90FA8B8470028D9DC0E9B09A953F84B
:103190000820304B0FA8984700287FF473AF4FEA00
:1031A000C80A2D4F51460FA8B84700287FF46AAFD0
:1031B00006A90846294B0FAA98470146002841D185
:1031C000274B06A8984700281ADA264B09A90FA80A
:1031D000984700287FF456AF51460FA8B8470028FB
:1031E0007FF450AF06A9204B0FAA08469847002845
:1031F0007FF448AF0E9A52F80830013B42F808308D
:10320000009B09F1FF39A8F10408043B0CE7009882
:10321000185882B1154F0023B8474FF0FF3383424F
:103220004FF000038B41024638BF4FF0FF32174684
:10323000059B1F6065E74FF0FF37F9E74A4671E7E6
:10324000029B8DE70C4663E66FF00B0453E600BF6C
:10325000032A0008212E0008CD280008952C00081C
:10326000852A000871270008812C00086D5E00087F
:10327000E12700082DE9F0411A4F04460D4610469B
:1032800000211646B847002828DB2A463346164D4B
:1032900021460020A847054670B9DFF85480002178
:1032A0002046B84700280ADB104FDFF84880314637
:1032B0002046B84700280ADA2846BDE8F0813246A1
:1032C00021462046C0470028E9D00546F4E73246AB
:1032D00021462046C0470028E9D0F6E76FF00905EF
:1032E000EAE700BF852A0008952E0008032A000897
:1032F000812C0008952C00082DE9F04F2DED028B54
:10330000094C08EE100AA5B00E461846002190465A
:103310001D46A047002809DC6FF00304204625B0B5
:10332000BDEC028BBDE8F08F852A0008AB681B68F6
:1033300013F001030693EFD000214046A047002878
:10334000EADB9E4C4046A047B0F5C07FE4D8284653
:10335000A047B0F5C07FDFD8994BA868DFF880B2EE
:1033600098474FF0010A00213022964B14910746EE
:1033700018A8CDE909A1CDE90B1ACDE90D11CDE9C8
:1033800012A1CDE90FA1119198474046A047069B95
:10339000CDF860A0172888BF02230021CDE91911BC
:1033A000059318EE101A0AFA03F918A8864B9847E5
:1033B000696818A851440291D8470446002840F093
:1033C000D88002991BA8D8470446002840F0D18035
:1033D00002990CA801FA0AF1D8470446002840F0E7
:1033E000C8803368079301330AD1774B314612A85E
:1033F00098470446002840F0BC80CDF848A012AEA3
:10340000309B1BB19B68002B40F0CD806F4B01219E
:1034100009A898470446002840F0AB8069686C4BC7
:10342000890109A898470446002840F0A28009A90C
:10343000684B2A46084698470446002840F0998081
:10344000309B23B10C2209A91846634B9847634B64
:103450002946304698470028C0F2A9805D4B2A468D
:1034600031461BA898470446002840F082806968CE
:103470005B4B01311BA898470446002879D10E9B6D
:103480001D9800932A463B4609A9564EDFF838A1FD
:10349000B04709A918A8D0470446002869D10123DC
:1034A000CDE91533089308AB17930E9B00931A9838
:1034B0003B462A4615A9B047059B022B29D16968CE
:1034C000DFF81CB101311EA8D847002840F02E813A
:1034D0001BA91EA8D047002840F028810E9B2098E9
:1034E00000931EA93B462A46B047696821A80131CE
:1034F000D847002840F01A811EA921A8D0470028EB
:1035000040F014810E9B009323983B462A461BA94A
:10351000B0474FF0000AD8F804300393CDF808A064
:10352000CDF810A0D346BBF1000F66D1039B002B52
:103530005ED1DFF8B8A0DFF8ACB0DDE9033293422A
:1035400040F0BA800123CDE91533089308AB1793F7
:103550000E9B00931A98234E3B462A4615A9B04766
:10356000079B013300F0CD8018EE100A164B18A906
:1035700098471D4D4FEA59060C274E4540F0DA801A
:1035800018A8A8471BA8A8470CA8A84712A8A8478E
:103590000FA8A847309B1BB19B68002B7FF4BEAEE1
:1035A00009A8A847BAE630990C2209A84DE7064BAE
:1035B00031461BA85FE74FF0020AB4E779280008FC
:1035C000492400088957000871270008E1270008EE
:1035D000CD2800087532000833570008032A000878
:1035E000D126000875260008A52600083526000803
:1035F000039B013B03934FF0200BD8F80830039A4C
:1036000053F822300BF1FF3B23FA0BF313F00103C5
:1036100015D1BAF1000F86D0BAF1010F0FD1484E83
:103620004A4618A90FA8B04700287FD10E9B0093E7
:103630001A98444E3B462A460FA9B04773E7049AAE
:1036400001320492DDE90412521A9340029A1A439D
:10365000059B02928B42AED14FF0000A384E0023F8
:103660004A4618A90FA8B04700285FD10E9B0093C7
:103670001A98344E3B462A460FA9B047049B0AF1DC
:10368000010A534515D8029B2D4E4A4618A90FA88A
:10369000B047029000284BD10E9B00931A98294EF8
:1036A0003B462A460FA9B047029BDDF818A00493B9
:1036B00039E7DDF818A0D1E700234A4618A90FA87A
:1036C000D047002832D10E9B00931A983B462A46D9
:1036D0000FA9D847029B5B0019EA030F02930CD095
:1036E00001234A4618A90FA8D047F8B90E9B0093AA
:1036F0001A983B462A460FA9D847039B01330393E8
:103700001BE7D8F80430002B3FF42EAFD8F8083070
:103710001B68DB077FF528AF079B189318AA0A4B95
:1037200029461046984700283FF41EAF044620E77C
:10373000029C1EE718AB07FB0630A84701361CE7C2
:103740003526000875260008812C00082DE9F04F69
:1037500087B00023394F0546144668460122CDE95B
:103760000023CDE90232CDE904338A46B847B94691
:10377000064600284FD1214603A8B8470646002830
:1037800049D12F4C6846A047804603A8A0478346EE
:1037900048B92C4B314603A8984720B951462846D2
:1037A000B847064637E00123DFF8B0A0264F039361
:1037B000009300216846D04760B9D8454146234B65
:1037C00028BF594603A89847064620BB03A92846A8
:1037D000C847E6E76846A04701466846B847064638
:1037E000C8B903A8A047014603A8B847064690B940
:1037F000174B03A9684698470028164B14DB03AA09
:10380000694668469847064628B901216846B84780
:1038100006460028CDD0104C6846A04703A8A04714
:10382000304607B0BDE8F08F03A96A4608469847BE
:1038300006460028EFD1012103A8E8E77127000818
:10384000432800082128000885290008CD28000801
:10385000032A0008612B0008A5260008852A000815
:10386000F7B50E1E044615461F4614DB0B4B1046DB
:10387000984700280FDD6968094B2046984740B9F2
:10388000089BAA68CDE9007331466368A068054CBF
:10389000A04703B0F0BD6FF00300FAE7852A0008E7
:1038A0002D270008812500082DE9F0479A4E9CB08D
:1038B00007468946104601211546B047002840F3C7
:1038C000548100234FF00108CDE90483CDE9063887
:1038D000CDE90833CDE90A83CDE90C38CDE90E33C3
:1038E000CDE90183CDE91083CDE91238CDE9143358
:1038F000CDE91683CDE91838CDE91A3303932A466A
:10390000864B494601A898470446002840F0998014
:10391000414601A8B047002840F02481804B2A4648
:10392000494604A898470446002840F08A80DFF8FA
:10393000F89104A907A8C8470446002840F08180F0
:10394000294610A8C847044600287AD1294613A85A
:10395000C8470446002874D141460AA8DFF8D4813C
:10396000C047044600286CD101460DA8C047044654
:10397000002866D1014616A8C0470446002860D139
:10398000012119A8C047044600285AD1DFF8A881B0
:10399000DFF8A891099B1B68D8073FD5DFF890A1F5
:1039A000159B1B68DB077BD55E4BDFF884A113A951
:1039B00007A898470028C0F29E8007A913AA0846C6
:1039C000D047044600283CD10AA916AA0846D04789
:1039D0000446002835D119AA0DA90846D047044647
:1039E00000282ED1002107A8B0470028D2D1DFF847
:1039F0004C81002116A8B0470028C0F2A180494E92
:103A0000DFF82C81294616A8B047002880F2A18053
:103A1000454B16A938469847044612E0012107A8ED
:103A2000C047044668B90C9B1B68DB0720D40F9B7A
:103A30001B68DC071CD401210AA8C04704460028E3
:103A400026D03A4D04A8A84707A8A8470AA8A8471F
:103A50000DA8A84701A8A84710A8A84713A8A847D9
:103A600016A8A84719A8A84720461CB0BDE8F087AB
:103A70000AA910AA0846C84704460028E1D10DA9A2
:103A80002B4B04AA0846984704460028D3D0D8E711
:103A900001210DA8C047044600283FF47BAFD0E7C2
:103AA000012113A8C04704460028CAD1189B1B68EF
:103AB000D90711D41B9B1B68DA070DD4012116A866
:103AC000C04704460028BCD1012119A8C0470446BC
:103AD00000283FF465AFB4E716A910AA0846C84706
:103AE00004460028ADD119A904AA0846D0470446C7
:103AF0000028E3D0A5E713A907AA0846D047044643
:103B000000289ED116A90AAA0846D04704460028D4
:103B100097D10DAA19A960E7852A00084D3700083A
:103B200075320008032A000871270008A52600083E
:103B3000952C0008E127000885290008812C000841
:103B400016A92A460846C047044600283FF451AF4C
:103B500077E716A92A460846C047044600283FF4DE
:103B600051AF6EE76FF00D046BE76FF003047BE776
:103B700070B50368CD1A002D0DDD93F900601C7837
:103B8000002E0BDB5C1C04601B7813600368C91AF1
:103B900013688B4236D96FF05F0070BD04F07F046C
:103BA000013C032C2BD8DFE804F0020A1421012D7C
:103BB000F1D05B781360036802330360E6E7022DFF
:103BC000E9DDB3F801305BBA9BB2136003680333DD
:103BD000F3E7032DDFDD9C785D78DB78240244EA8F
:103BE00005442343136003680433E6E7042DD2DD64
:103BF000D3F801301BBA136003680533DDE76FF0BB
:103C00006300CAE70020C8E770B404680E1B002EEA
:103C100007DD26789E4208D10134046070BC044B55
:103C200018476FF05F0070BC70476FF06100FAE7F3
:103C3000713B000873B502231546084E01AA0446DD
:103C4000B04740B9019A064B216828469847236837
:103C5000019A1344236002B070BD00BF093C000804
:103C60009528000870B50323084E0446B04718B9DC
:103C7000136813B96FF0670070BD013B13602368D0
:103C80001A78002AF6D101332360F5E7093C0008D1
:103C90002DE9F743DFF8989090461F4601AA30239C
:103CA00005460E46C8470446E8B92B68F61A002EAA
:103CB00036DD42461B7842F8043B01992E680E44DB
:103CC000062331462846C847044660B92B68D8F811
:103CD0000420C8F808309918B142296007D1124B66
:103CE0000C2138469847204603B0BDE8F0839B5C22
:103CF0003A46314642F8043B2B6801332B60284694
:103D00000A4B984704460028EDD12B687A68BB60BF
:103D10001344B3422B600CBF04466FF06504E2E726
:103D20006FF05F04DFE700BFD15C0008713B000863
:103D3000093C00084FF48032054B9A6641F6713217
:103D400003F51C33DA63012203F50053DA60704790
:103D5000009000502DE9F3470E4617469946044659
:103D600028B94FF0FF38404602B0BDE8F08700297F
:103D7000F7D0002AF5D0CB680D8938461D440423BE
:103D80002946DFF86CA00DEB0302D04780460028DF
:103D9000E7D146F60812BDF804107389914224D188
:103DA000BDF806109942DCD1042338460DEB03021E
:103DB0002944D0470028D4D146F60713BDF8042083
:103DC0009A42CED1C4E900679DF82830A4F8089043
:103DD000A3727389BDF806202B44E36073891344F2
:103DE0002B44043563612561BDE7002BE4D0B8E7BF
:103DF000A15800082DE9F3410E4617461D4604461A
:103E000020B94FF0FF3002B0BDE8F0810368002B0D
:103E1000F7D04368002BF4D0DFF87480D4E9042392
:103E20009A4215D223685B8923B1E368934204BFA9
:103E3000043323610423216960680DEB0302C0474A
:103E40000028DED1A37A2BB1D4E903329A4201D300
:103E50000120D8E74FF6FF712289BDF806308A426B
:103E600003F1040C03D0BDF8041091420BD115B13D
:103E7000BDF804202A802169043131603B80226929
:103E800062442261BFE7236963442361C6E700BF40
:103E9000A15800081FB50D4B00200192984703A9B7
:103EA0000B4BC0B29847019A014660B92023094CD8
:103EB0000398A0470446084B03989847201E18BF54
:103EC000012004B010BD0120FBE700BF095B000822
:103ED00069580008A15800089D5800082DE9F74FBF
:103EE000D0F828B00746BBF5807F04D8436DB3F502
:103EF000807F019336D92048204B9847002003B09B
:103F0000BDE8F08FD04516D1786A00EBC500C847F0
:103F10008044386D013500EBC400C8470134824449
:103F20005D45EFD3019B9C42ECD35D4501D19C42A2
:103F300020D01348E0E70BD2786A00EBC500C847F1
:103F4000022E804401D10F48D6E701260135E7E76C
:103F5000386D00EBC400C847012E8244F3D002261E
:103F60000134DDE70026DFF8209034463546B246BE
:103F7000B046D5E70120C2E7A0630008015D000854
:103F80000A640008D163000865580008F7B51346B5
:103F900001920E4602460021084F0546B8470446E6
:103FA00048B901212846019B05F12C02B84710B100
:103FB000002E18BF0446204603B0F0BD953E000811
:103FC000F7B5114B044600200F4698470F4B01A947
:103FD000C0B29847054620B14FF0FF35284603B0E0
:103FE000F0BD0B4B019898470A4B0646019898473D
:103FF0002C2101FB07414B1E03318B42EED013F8FD
:10400000012FB242F9D0E7E7095B000869580008C0
:10401000A55A00089D5800082DE9F0413F4B88B093
:104020001D6804463E4B00200E4698473D4B07A9AD
:10403000C0B29847002861D1314620463A4DA84782
:1040400028B12C2303FB06431B69DB0602D5374B43
:104050001D6850E00EB394F84020237D9A421CD88E
:104060000AD394F84120637D9A4216D804D3B4F859
:104070004220E38A9A4210D200212046A84760B12C
:104080002B4B2C489847079C2B4B204698470021E8
:1040900002462A4B20469847D9E72C274FF48073D5
:1040A000002177430193264B04EB07080093424617
:1040B0000846CDE90311079B224D0291A84705460A
:1040C000214BE2599A4205D0E6B92049184B2048C5
:1040D0009847BCE7B8F80840D8F80C30E243934260
:1040E000F2D81C440798144B98478442ECD2194BE1
:1040F0001B68AB42E8D10798174B9847284608B091
:10410000BDE8F081079C0C4B2046984700210246F1
:104110000A4B204698471149D8E700BF10140020E9
:10412000095B000869580008C13F0008141400200A
:10413000015D00084C64000859580008C95900087E
:10414000A8280020B14500083DB8F3964464000853
:104150007A640008A82900209D5800083A640008E5
:1041600073B54FF480760446426A0E4D01200196E5
:1041700001A9A84750B9019B0220226DA3620196B4
:1041800001A9A847054628B1092500E001252846D0
:1041900002B070BD019B206A6365034B9847E065E0
:1041A000F5E700BFA95A0008A15A000801230360DF
:1041B00003F1012343600023C0E9023370474379D0
:1041C000012B07D10368012B04D10079431E58420B
:1041D00058417047002070472DE9F84F8846154632
:1041E0001E460024DFF84890DFF848A0DFF848B00A
:1041F0000B9B9C4201D300200DE00B9B40461F1BF4
:10420000B7F5806F28BF4FF48067094A3B46A11974
:10421000D04710B10120BDE8F88F0A993B464A46C5
:1042200028466118D8470028F4D13C44E0E700BF95
:10423000A8140020A1580008115900082DE9F04FDA
:104240000F460021914B04464362914B8BB00365AE
:10425000904D0846A847904E04F12001C0B2B047E7
:10426000B046C0B90121A84704F14C01C0B2B04723
:1042700088B92046894B9847054698B900222046C0
:104280001146874B9847054620B300218548864B49
:104290009847012353E040F2F17284498448824BED
:1042A0009847FFDE804B4FF4807182489847012386
:1042B0009D4284F85830E1D194F85830042B8DF8A1
:1042C0001F303FD8012B3FD800F0BA80FF2384F87D
:1042D0005830B5E02046784B98470028D9D0774B26
:1042E00006A89847764B984710B940F20A72D4E76F
:1042F0009DF81F60012E17D12846724B9847831EE8
:10430000022B05460DD8704B3146204698476F4B1F
:104310001B68984205D06E4B1D68A8420CBF012552
:10432000052584F85850C7E701212046664B984779
:10433000664B1B68984214BF05239DF81F3084F814
:104340005830B9E7052BBFE7574D6248A847624888
:10435000A847012004A9C0472E4628B140F24B428D
:1043600052495348A8479CE7022005A9C04710B10D
:1043700040F24F42F4E705468246A36ADFF878919F
:10438000DFF87881534523D129465448B047DDE909
:104390000421002301952046514D0093A847002891
:1043A0005BD15048B047DFF858A1206DDDF814B05C
:1043B000D0470546206DD047291A206D0291C84785
:1043C000029902465846C047C0B140F2AA420DE0E9
:1043D000606A029300EBCA00C8472946024683463A
:1043E0000498C047029B28B140F255422F493048FB
:1043F000B04756E75D440AF1010AC3E7656D3A48E4
:10440000B047206D013DEB0000EBC5000393DDF8E4
:1044100014B0D0470546206DD047039B291A206D64
:1044200002911844C847029902465846C04710B145
:1044300040F2B242DAE704982C4DA8470598A84705
:1044400094F85830FF2B0BD1174C2948A04740F661
:104450005A0216491648A04723E740F20C62C5E706
:104460000021012B234D05914CD020460C4B06AA70
:104470009847002846D02D68E06C1C4EB047206A53
:10448000B04728460BB0BDE8F08F00BFA818002049
:10449000A8200020095B0008695800086141000855
:1044A0008D3F00085B650008015D0008A4640008FA
:1044B0000265000817650008DD3E0008AD410008F0
:1044C000BF410008B54A000819400008A82900208B
:1044D0001414002089650008BD650008DD6500082A
:1044E000D941000820660008406600089D58000871
:1044F000616600081014002065580008C9590008BA
:104500006158000800212046164B9847164E336824
:104510008342B0D12A689A42ADD0144A12689A42B6
:10452000A9D021460020226A114B9847014630B994
:10453000059B01330593059B012B04D0FEE70D4B32
:104540000D48984797E710220C4B06A898470C4B4C
:10455000206A98473871206A0A4B98473C60356852
:10456000B86089E719400008A82900201414002029
:10457000BD4C0008015D00086F66000889570008FF
:104580005D5800085558000838B5064D04466022AD
:1045900000212846044B9847044B2146284698475B
:1045A00038BD00BF48140020895700083D4200086C
:1045B0002DE9F04F1D466F4BD9B01B68DFF8ECB109
:1045C00038A81446DDE964780293DDF888A1D8475D
:1045D0000021694B38A89847CDF80CB03FB1B8F12D
:1045E000000F04DD42463946644B38A898474FF027
:1045F000000863892789DFF884B11F44E3681F44FA
:1046000047451FD85E4B0DA938A89847669B23B134
:10461000184620225B4B0DA99847002321460093A2
:104620002A464FF6FF73584C07A8A04707460028B4
:1046300040D12846554B0C9C984784423AD84FF0BD
:10464000FF3414E0639AA7EB08039A4228BF1A4686
:10465000414691461346284652464D4EB04748BB08
:104660004A46514638A8D847C844C9E70127494EA9
:104670000DF1160305AA06A907A8B047002819DB03
:1046800071D1BDF81630102B18D1BDF81470202F41
:1046900010D13B4628460699DFF8F48038AAC04777
:1046A00040B93D4B3A4638A90DA898473B4B1B688B
:1046B0008342DBD02F4B1B68029356E0012B34D191
:1046C000BDF81430202BF5D8314C2846069938AA6D
:1046D000A04704460028EDD19DF814A0BAF1200FA0
:1046E000ADD82F4BDFF8C8901B68DFF890B01E469E
:1046F000B442A4DA039B1DA8984700211E4B1DA8B5
:104700009847D9F804301DA81A6859F8081BD847EB
:104710001B4B15A91DA898475246224B38A915A82E
:1047200098470028A3D00134E2E7222B9FD1631CD5
:104730009DD01B4B1B68A34281DDBDF81430802B3C
:10474000B8D828460699124E38AAB0470028B1D1E9
:10475000E4B200942021BDF81430134C38AA0DA8FF
:10476000A04702906BE7002FA4D0029859B0BDE893
:10477000F08F00BF101400207D000008B102000877
:10478000C102000833570008553D0008C54B00081A
:10479000A1580008F53D0008BD4B0008A8290020DD
:1047A000CC6A000811570008B547000871000008DE
:1047B000D06A00082DE9F047B4B03B4D98469DF80B
:1047C000F030064655F8334005EBC3056B6804949A
:1047D0001B6889461C44174630232146334D05AAE1
:1047E00004A8A84710B14FF0FF343FE0DDE90453BF
:1047F0001D442946DFF8DCA009AB06AA04A8D0476F
:104800000028F0D1079A072AEDD129490898DFF846
:10481000C8A0D0470028E6D10A9A082AE3D1254942
:104820000B98D0470028DED12946234B05AA04A8BF
:1048300098470028D7D1DDE9043213449D42D2D1F4
:10484000412AD0D1B9F1200FCDD11C4B09A89847EE
:10485000049D0321631B1A4A09A803939047039BF5
:1048600040B14FF0FF34174B09A89847204634B0A9
:10487000BDE8F0872A46144C2BA909A8A0470028B8
:10488000EFD1124B2BA909A898470028E9D1104C69
:104890003B4620223146CDF8008009A8A0470038C9
:1048A00018BF01204442DEE7D06A0008093C000836
:1048B0001E6A0008266A0008653C0008752000088A
:1048C000950A00087D2000080116000865170008F9
:1048D0005D200008913C00081157000838B50C46CF
:1048E0001546074B984721462544A94201D101208E
:1048F00038BD11F8013B9842F7D00020F8E700BF1F
:10490000A55A000808B5034B9847183820F007004F
:10491000103808BD59580008042809D0052803D1CB
:10492000481E18BF01207047431A5842584170472B
:104930000120704711B10AB1014B184700207047A0
:10494000DD48000870B50C46012311460C4E224686
:104950000546B047002810DB012221462846094BB6
:10496000984718B103230020237070BD2378012BD2
:104970000CBF012302232370F7E70120F5E700BFF6
:10498000A15800083549000813B5074B04460191AA
:104990009847183820F0070220460199034B02B0CF
:1049A000BDE81040184700BF5958000845490008A5
:1049B0002DE9F0412A4E86B005460C46B047294FF6
:1049C000A0F110011023284602AAB8470028B846D3
:1049D00003DA012006B0BDE8F08110222846224FFC
:1049E00002A9B84788B30323237028461F4B984772
:1049F000012301460DF107022846C0470028E8DBE5
:104A00009DF80730284603F00F021B0962702371DE
:104A100001220DF10701B84710B96378042B03D9BF
:104A200001236370002323712846B047183820F013
:104A300007020F4B2846083AA11C98470028C8D106
:104A400028460C4BE11C9847C4E70B4B10220B493E
:104A500002A89847002814BF02230123C4E700BF1F
:104A600059580008A1580008DD4800080549000809
:104A7000454900088949000811570008306A0008B4
:104A800013B5094B0C46C0B201A9984750B921464D
:104A9000064B01989847064B0446019898472046D4
:104AA00002B010BD0124FAE769580008B1490008B6
:104AB0009D5800082DE9FF47051E69460CBF0120DF
:104AC000FF20334CA047064618B1FF2004B0BDE8D4
:104AD000F087002D0CBF0220FF2002A9A04701286B
:104AE00004463CD12B4B29462B48984703238DF88D
:104AF00009408DF808308DF80A308DF80B308DF8AC
:104B00000C6000229DF800609DF808709DF80380FD
:104B10009DF80B909DF802A0204C214D3146207845
:104B2000A84708B339466078A847E8B1A378042BB2
:104B300001D0434518D1E378042B01D04B4513D164
:104B40002379042B0ED16379022B17D11549114B10
:104B5000154898476079831E022BB7D9B5E700281E
:104B6000CFD0B2E75345EED00132032A04F1060458
:104B7000D4D10E48074B98470120A7E7032B05D057
:104B80000B490C4A042B18BF1146E0E70A49DEE73F
:104B9000814A0008015D0008C1660008406A0008FB
:104BA00019490008A56600080E6700082367000879
:104BB0009E660008AF660008AA660008004B18470A
:104BC00011570008004B1847054900082DE9F74F19
:104BD0001746002281460D461E4601921BB903204E
:104BE00003B0BDE8F08FDFF8CCA02F4C9AF800801E
:104BF000B8F1000F10D12D4B4FF480624146204692
:104C0000984716232370202363700423A370012385
:104C100084F803808AF80030B4F80280DFF898A0A6
:104C2000DFF88CB0A044C24527D3C5F30B0141EA9D
:104C3000093563881FFA87F9ADF8045009F10405B6
:104C400013FA85F5B5F5803FADF80690C7DAADB239
:104C5000B5F5806F26D80422154D0DEB02014046B4
:104C6000A8473A46314608F10400A8476388002067
:104C700004339944A4F80290B2E7042251460DEBA4
:104C80000200D847BDF80430B9EB133F03D1C3F39A
:104C90000B03AB4204D0BDF8063004339A44C2E79C
:104CA00002209DE701209BE7A46D000889570008BA
:104CB00033570008AC290020A86D000800232DE917
:104CC000F043ADB0284C009305464FF6FF7305A89E
:104CD0001746A047044620B14FF0FF302DB0BDE885
:104CE000F0830646DFF89080DFF880900DF10E0328
:104CF00003AA04A905A8C0470028EDD1BDF80E30CD
:104D0000602B0DD1BDF80C30642BE5D838460499E2
:104D100013AAC8470028DFD10124BDF80C60E5E7DD
:104D2000102BE3D1BDF80C30202BD5D83846049990
:104D30000E4F0BAAB8470028CED1002CCCD01F2E86
:104D4000CAD9A6F1200013AB04900BA92022184465
:104D5000074B9847A9013246064C13AB41F03F017F
:104D60000120A047BAE700BF553D0008A158000840
:104D700033570008CD4B0008F53D00084FF4804143
:104D80004FF0FF3010B5114B114A9A60D3F88820CC
:104D900042F47002C3F888200E4A91660E4901F56C
:104DA000005210660D4850660220C3F8D000BFF3D1
:104DB0004F8FBFF36F8F01244FF440330848C0F882
:104DC0008041D36004600B6110BD00BF00ED00E0C6
:104DD000000000080090005000800044F7FF3700FA
:104DE00000E100E008B5084672B6044B984708B9E0
:104DF00062B608BD62B60120FBE700BFAD6B0008DC
:104E00004FF000624FF4C0130420C1E90023044BAB
:104E1000C1E9020301230B61024B00204B61704783
:104E200001006000A06A00080020704710B5044629
:104E30000846A4691146074A944208D1033323F077
:104E40000302054B9847003818BF012010BD012010
:104E5000FCE700BF00000350516C000808B50D4B83
:104E600082699A4203D10C4B9847002008BD00206C
:104E70000A4B98470A4B98470A4900200A4B984723
:104E80000A480B4B984701200A4B98474FF0FF30D8
:104E9000ECE700BF00000350353D00081D5400083A
:104EA0006954000876670008015500088267000809
:104EB0004555000841540008002070470020704705
:104EC00010B5826804464068531C834205D82068A8
:104ED0008154A360E3680133E360D4E901329A426C
:104EE0000BD1064B216820699847A368984215BFEB
:104EF0004FF0FF330023E360A36010BDD9530008D7
:104F00002DE9F84F1646054688460A464FF0010A35
:104F10009946DDE90A43B24212D2CA4538BFCA46B1
:104F200013F0010B01D184B90024EB68002B48DB9E
:104F30000127B9F1010F20D909F1FF397743F8E7CB
:104F4000B2FBF6F20AF1010AE5E79B0713D5B9F1C6
:104F5000000F0CBF302720271C4AA245E5D2394656
:104F600028469047EB68194A002B04F1FF34DCDB3C
:104F7000002CF2D1D8E72027EEE7B8FBF7F39E42EA
:104F8000DCD9124B124A9946B8FBF7F1284607FBC9
:104F90001188515C9847E968002905DBB742B7FBE7
:104FA000F6F10A4B0A4A0ED2BBF1000F09D044B108
:104FB000A24506D220212846C847EB68013C002BB9
:104FC000F5DABDE8F88F0F46DEE700BFC14E0008F6
:104FD000A86A00082DE9F04F9BB00AAB0E46059376
:104FE000402100231546CDE90613CDE90830944F42
:104FF000DFF854A2039016F8011B39B9089B002B67
:1050000000F3128108981BB0BDE8F08F252940F00D
:10501000C1804FF0000B07E0302B0FD14BF0020B9B
:1050200001E04BF0010B0E46314611F8013B2D2BF0
:10503000F7D0F1D8232B13D02B2B0ED000240A202D
:10504000314611F8013BA3F1300CBCF1090F0AD82D
:1050500000FB04340E46303CF2E74BF0040BE2E771
:105060004BF0080BDFE72E2B12D10E464FF0000954
:105070004FF00A0C304610F8011BA1F1300EBEF1C2
:10508000090F07D80CFB09130646A3F13009F1E715
:105090004FF00009304610F8011B01F0FB0CBCF189
:1050A000680F0646F7D0782909D86F290BD86329ED
:1050B0006CD021D825296DD0582900F09680089B06
:1050C000002B98DA9AE770390829F8D801A353F829
:1050D00021F000BF19520008BF500008BF5000085F
:1050E000FB510008BF500008D9510008BF5000080C
:1050F000BF500008EB5100086429E0D129684FF047
:105100000A0C081D2860D1F80080012188EAE870A7
:10511000A0EBE870092840DC49450B4638BF4B46F8
:10512000029334B1B8F1000F02DB1BF0040F00D082
:10513000013C1BF0020F02D0B9F1000F04D01BF0AC
:10514000010F01D16CBB002408990029B7DBB8F12D
:10515000000F31DA2D21C8F1000805A8B8470899D9
:105160000029ACDB0BF00301022904D1B9F1000FD7
:1051700001D134BB002408990029A0DB4B460A2248
:105180004146CDE9004B05A8D04798E72B681A1D8A
:105190002A60197805A8B84791E7B0FBFCF0013107
:1051A000B8E7029BA342CFD2202105A8B8470899AF
:1051B000013C0029C6DAC7E71BF0040FCFD02B2132
:1051C000CBE7029BA342D6D2302105A8B847089965
:1051D000013C0029CDDACEE74B460A222968CDE909
:1051E000004B081D28600968CDE74B462968CDE9CA
:1051F000004B081D28601022F5E72B681A1D2A6055
:105200001C6814F8011B00293FF459AF05A8B847E2
:10521000089B002BF5DA52E7296800220B1D2B6052
:105220000823CDE90032E6E7079A1AB10398054B47
:105230000AA99847DDE9072313440893E2E600BF73
:10524000C14E0008D9530008014F00080369C26825
:1052500093429CBF80681B18013B981A704700005E
:105260002DE9F8430546D0E902944068A9EB04080B
:10527000904520440F46094E144405D9B047BFF36A
:105280005F8FEC60BDE8F8834246A4EB0904B047A9
:105290002246686807EB0801F0E700BF33570008B3
:1052A0002DE9F04706468A4617464FF00008C568C4
:1052B000DFF848903469B368A54228BFE418013C80
:1052C000621B5C1BBC4228BF3C46944228BF14466C
:1052D0007068514622462844C847B3682544AB420B
:1052E00008BF0025A044A2443F1BBFF35F8FF560B9
:1052F000002FDFD14046BDE8F08700BF33570008DC
:1053000010B5154CA82200212046144B98470323C2
:10531000134923616361134BA161E3614FF480532F
:10532000012223620023A3626362E262216604F128
:10533000A80161661021A1662367E3666267BFF377
:105340005F8F094A12F80119E1540133102BF9D18A
:10535000BFF35F8F10BD00BF000000208957000819
:10536000DD670008B8000020C76A000870B518247F
:1053700000FB0445144B16461D4404FB0033DC6A55
:10538000012C0ED0022C18D0E4B928460F4B9847B8
:10539000864204D8324628460D4B9847344620466C
:1053A00070BD2846094B98478642344628BF0446BC
:1053B000074B224628469847F1E72846BDE870404B
:1053C000044B18470024EAE7000000204D52000873
:1053D00061520008A152000873B50B4B04461B78BC
:1053E0000D46532B164601D0084B9847084B98475B
:1053F000324629462046074B9847074B019098476D
:10540000019802B070BD00BF0000002001530008E9
:10541000DF5C00086D530008DD5C0008044B08B930
:10542000044818470138012894BF03480348F8E7A7
:10543000015D0008E6670008EE670008F6670008EF
:1054400070B50446054D0648A847012C04D12B46EB
:10545000BDE870400348184770BD00BF015D0008FB
:10546000F66700086D6600082DE9F04387B010224A
:1054700000211D4B02A8984700211C4B02A8984709
:10548000DDE902011A4C00231A4AA04716461D46C0
:10549000CDE90223304629464FF461620023A0473C
:1054A00090461F46404639463C220023A047002331
:1054B0005FFA82F940463C223946A0474FF46162C8
:1054C000C7B2002330462946A0474FF47A72049BA6
:1054D000C1B293FBF2F3084C00933A464B4607489F
:1054E000A04707B0BDE8F08389570008BD5D0008FC
:1054F000CD5D000880510100015D0008FB670008D8
:1055000010B90A480A4B1847012801D10948F9E7A0
:10551000022801D10848F5E7032801D10748F1E73F
:10552000042801D10648EDE7704700BF1168000864
:10553000015D00082268000832680008426800081F
:10554000526800080FB407B504A951F8040B044BC6
:105550000191984703B05DF804EB04B0704700BFB9
:10556000E95C000810B50B4A00680B4C02EBC00365
:10557000A3420CD85B6852F8302003EBC202588873
:10558000884201D1586810BD08339A42F7D80020EC
:10559000F9E700BFC86C0008D06C0008004B184742
:1055A00065550008004B1847655500082DE9F04780
:1055B0002B4E07460025B046DFF8D090DFF8D0A08C
:1055C000D9F80030AB420BD80420264B9847264B25
:1055D000984704202549264B98473946254816E028
:1055E00031463846D0471C360446002835D11C26A3
:1055F00006FB0586B36893B904201A4B98471A4BEB
:105600009847042019491A4B984739461A481B4BAA
:10561000984701201A4B98474FF0FF301BE005F5E3
:105620007A73F360174B9847336913B97461012497
:1056300034611C2606FB0586736901337361124BC6
:105640009847012C03D1B0690369DB6A98471C2392
:1056500003FB0585E868BDE8F0870135B0E700BFCA
:10566000B02900201D540008695400086268000831
:10567000015500089368000869680008455500084E
:1056800041540008E15C0008E55C0008302D002072
:10569000D756000830B580B1094B0A4A1C6811463C
:1056A0000023A34201D1002007E0D5681C32A842A4
:1056B00004D11C2202FB0313986930BD0133F0E7CB
:1056C000302D0020B0290020034600201A5C02B9CA
:1056D00070470130FAE70138013910F8013F11F83D
:1056E000012F934201D1002BF7D1981A704710B5C2
:1056F00001390244824209D0037811F8014FA342D4
:1057000000D10BB9181B02E00130F3E7002010BDF7
:1057100010B562B103460139841813F8010B11F872
:10572000012FA34201D09042F7D0801A10BD10463D
:10573000FCE7F0B581EA0004A50703460BD0013B66
:105740000A4491421BD1F0BD002AFCD011F8014B54
:10575000013A03F8014B9C07F6D122F003041D1F08
:1057600096080F19B94205D16FF00305234405FBD4
:105770000622E4E751F804CB45F804CFF2E711F82C
:10578000014B03F8014FDCE770B50446C9B2A3072B
:1057900011D141EA012343EA034522F003039608AD
:1057A00023449C420DD16FF0030404FB06221A44EB
:1057B000934209D170BD002AFCD004F8011B013AC4
:1057C000E5E744F8045BECE703F8011BF0E70000B1
:1057D00038B51848184B9847184B1860184B98471D
:1057E00020B103691B6C0BB1164998471548164D3B
:1057F0004369026859684368B1F5004F38BF4FF4F8
:1058000000416868AC6882424FF0010008BF1B1B72
:10581000A3EB01030D494FEA530308BF1219C1E975
:10582000012308800A498B6013444B6002230B80DC
:1058300038BD00BFB4670008AD550008241400202F
:1058400095560008342D0020181400204C2D0020FF
:10585000582D002040687047806870474078704736
:105860000068704740687047094B1A7882420DD033
:10587000084B1A78824209D0074B1A7882421ABF25
:1058800000234FF0FF3000200B6070470020FBE743
:10589000181400204C2D0020582D002070470000C7
:1058A00070B505466C7810461A46ACB9CE18AB6890
:1058B000B34214D201200D4B98470D4B984701205D
:1058C0000C490D4B98470D4CAB680D4832460D49BD
:1058D000A04701200C4B98474FF0FF3004E06D6863
:1058E0000A4B29449847204670BD00BF1D5400084C
:1058F00069540008B16800080155000845550008C2
:10590000BC680008FA6A00084154000833570008D0
:105910002DE9F74F477883461646CFB98268CD18F0
:10592000AA42DFF898A01D4ADFF89490DFF894802F
:105930001B4C10D201209047D04701201949C8477D
:1059400019482A46DBF808301849C0470120A0470B
:105950004FF0FF301CE04568042001930D44904750
:10596000D04704200F49C8472A46019B0F491048D9
:10597000C0470120A0470F4A10680F4A904738B12E
:105980000269946C3CB132462946019BA0473846D7
:1059900003B0BDE8F08F2046FAE700BF1D540008B1
:1059A00041540008B1680008BC680008E96A0008B2
:1059B000DF68000824140020955600086954000888
:1059C00001550008455500082DE9F74F43780C466E
:1059D000154613BB264FDFF8B0B07B69DFF8ACA0EB
:1059E0005B68DFF8AC90B2FBF3F103FB1121DFF849
:1059F000A480204A21B9B4FBF3F603FB16467EB11E
:105A000001209047D84701201B49D0471B482B460F
:105A100022461B49C8470120C0474FF0FF3015E020
:105A2000416804200C449047D84704201249D047CD
:105A30002B46224612491348C8470120C047DFF8C9
:105A40005890DFF85880AE4203D3002003B0BDE881
:105A5000F08F3119D8F800000191C84720B10369CF
:105A60005B6C0BB1019998477B695B681E44EAE760
:105A7000342D00201D540008B1680008FB680008A0
:105A8000D86A0008DF68000869540008015500085A
:105A9000455500084154000895560008241400207C
:105AA00004207047FF207047F0B5134BC0B21C783C
:105AB000844207D0114B1C78844203D0104B1C78D1
:105AC000844216D1587888B90E4C171D64696568F0
:105AD00004469E68864202D800200C60F0BD42F861
